:100000000C94E0000C9408010C9408010C94080175
:100010000C9408010C9408010C94260D0C94080112
:100020000C9408010C9408010C9408010C9408012C
:100030000C9408010C9408010C9408010C9408011C
:100040000C94BD0B0C9408010C948B0B0C94650B59
:100050000C9408010C9408010C9408010C940801FC
:100060000C94070C0C94080100407A10F35A00A07D
:10007000724E18090010A5D4E80000E87648170071
:1000800000E40B54020000CA9A3B000000E1F505B1
:10009000000080969800000040420F000000A086FB
:1000A00001000000102700000000E803000000002D
:1000B0006400000000000A000000000001000000D1
:1000C00000002C76D888DC674F0823DFC1DFAE59EB
:1000D000E1B1B796E5E3E453C63AE651997696E87E
:1000E000E6C28426EB898C9B62ED407C6FFCEFBC02
:1000F0009C9F40F2BAA56FA5F490055A2AF75C932D
:100100006B6CF9676DC11BFCE0E40D47FEF520E662
:10011000B500D0ED902E0300943577050080841E45
:10012000080000204E0A000000C80C333333330FA0
:10013000986E12831141EF8D2114893BE65516CF3D
:10014000FEE6DB18D1844B381BF77C1D901DA4BB49
:10015000E424203284725E228100C9F124ECA1E5FE
:100160003D2700000000240027002A0000000000B6
:10017000250028002B000000000023002600290095
:10018000040404040404040402020202020203033D
:100190000303030301020408102040800102040845
:1001A00010200102040810200000000800020100D5
:1001B000000304070000000000000000730D06119A
:1001C00011241FBECFEFD8E0DEBFCDBF23E0A2E2F7
:1001D000B2E001C01D92AF3EB207E1F712E0A0E02D
:1001E000B1E0EAE6FFE202C005900D92A232B1074B
:1001F000D9F710E0CFEDD0E004C02197FE010E94B6
:10020000B015CE3DD107C9F70E94CF0D0C94A817A9
:100210000C940000382F28E080E0880FE0919303D1
:10022000F0919403408190919903492309F08F5FE5
:10023000E0919103F09192034081942B908337FFDA
:1002400009C0E0918F03F091900390814091990350
:10025000942B9083E0919503F091960390814091C7
:100260009A03942B9083E0919503F091960340813B
:1002700090919A03909594239083E0918F03F0914D
:100280009003408190919903909594239083E091FD
:100290009103F0919203408190919903909594235A
:1002A0009083330F215009F0B8CF08950895089531
:1002B000AF92BF92CF92DF92EF92FF920F931F9374
:1002C000CF93DF936C017B018B01040F151FEB01B2
:1002D0005E01AE18BF08C017D10759F06991D60169
:1002E000ED91FC910190F081E02DC6010995892BDB
:1002F00079F7C501DF91CF911F910F91FF90EF909A
:10030000DF90CF90BF90AF900895FC01538D448D46
:10031000252F30E0842F90E0821B930B541710F0B0
:10032000CF96089501970895FC01918D828D9817BD
:1003300061F0A28DAE0FBF2FB11D5D968C91928D95
:100340009F5F9F73928F90E008958FEF9FEF0895C6
:10035000FC01918D828D981731F0828DE80FF11D8F
:10036000858D90E008958FEF9FEF0895FC01918DAA
:10037000228D892F90E0805C9F4F821B91098F73A3
:100380009927089584EE92E00E94B60121E0892B1E
:1003900009F420E0822F089580E090E0892B29F075
:1003A0000E94C20181110C9400000895FC01A48DEB
:1003B000A80FB92FB11DA35ABF4F2C91848D90E087
:1003C00001968F739927848FA689B7892C93A0896A
:1003D000B1898C91837080648C93938D848D9813F4
:1003E00006C00288F389E02D80818F7D8083089587
:1003F000EF92FF920F931F93CF93DF93EC0181E075
:10040000888F9B8D8C8D98131AC0E889F98980811B
:1004100085FF15C09FB7F894EE89FF896083E8894E
:10042000F98980818370806480839FBF81E090E040
:10043000DF91CF911F910F91FF90EF900895F62ECD
:100440000B8D10E00F5F1F4F0F731127E02E8C8D67
:100450008E110CC00FB607FCFACFE889F9898081AC
:1004600085FFF5CFCE010E94D601F1CFEB8DEC0FC9
:10047000FD2FF11DE35AFF4FF0829FB7F8940B8FC9
:10048000EA89FB8980818062CFCFCF93DF93EC0133
:10049000888D8823B9F0AA89BB89E889F9898C916C
:1004A00085FD03C0808186FD0DC00FB607FCF7CF28
:1004B0008C9185FFF2CF808185FFEDCFCE010E9428
:1004C000D601E9CFDF91CF910895833081F028F4F0
:1004D000813099F08230A9F008958730A9F08830F2
:1004E000C9F08430B1F4809180008F7D03C0809189
:1004F00080008F7780938000089584B58F7784BDC6
:10050000089584B58F7DFBCF8091B0008F77809365
:10051000B00008958091B0008F7DF9CFCF93DF9325
:10052000282F30E0F901E855FE4F8491F901EC568F
:10053000FE4FD491F901E058FE4FC491CC23A1F0B5
:1005400081110E946502EC2FF0E0EE0FFF1FEA58C8
:10055000FE4FA591B491EC91ED2381E090E009F478
:1005600080E0DF91CF91089580E090E0FACF1F9373
:10057000CF93DF93282F30E0F901E855FE4F8491A7
:10058000F901EC56FE4FD491F901E058FE4FC491A9
:10059000CC23A9F0162F81110E946502EC2FF0E008
:1005A000EE0FFF1FE459FE4FA591B4918FB7F89459
:1005B000EC91111108C0D095DE23DC938FBFDF9141
:1005C000CF911F910895DE2BF8CFCF93DF9390E06A
:1005D000FC01EC56FE4F249180589E4FFC01849103
:1005E0008823D1F090E0880F991FFC01EE59FE4F4F
:1005F000A591B491FC01E459FE4FC591D4916111CC
:100600000EC09FB7F8948C91E22FE0958E238C93C7
:100610002881E223E8839FBFDF91CF9108958FB7B0
:10062000F894EC91E22BEC938FBFF6CF3FB7F894A0
:100630008091CF029091D002A091D102B091D202CC
:1006400026B5A89B05C02F3F19F00196A11DB11D2D
:100650003FBFBA2FA92F982F8827BC01CD01620F69
:10066000711D811D911D42E0660F771F881F991F24
:100670004A95D1F708958F929F92AF92BF92CF92F1
:10068000DF92EF92FF924B015C010E9416036B0117
:100690007C010E9416036C197D098E099F09683E32
:1006A000734081059105A8F321E0821A9108A10801
:1006B000B10888EEC80E83E0D81EE11CF11C81143D
:1006C0009104A104B10429F7FF90EF90DF90CF903F
:1006D000BF90AF909F908F900895CF93CFB7F8942D
:1006E0008091C902811127C0EAE8F1E08491EEE926
:1006F000F1E09491E82FF0E0EE0FFF1FEE59FE4F6E
:10070000A591B491EC91E92321F461E08AE00E9483
:10071000B70261E08AE00E94E5028CB580618CBD81
:100720008CB580648CBD61E08DE00E94E50261E0E3
:100730008BE00E94E5028091C9028F5F8093C9021D
:10074000CFBFCF91089508958EBD00000DB407FE70
:10075000FDCF8EB50895EF92FF920F931F93CF9325
:10076000DF939091BE039F3F41F4DF91CF911F91A2
:100770000F91FF90EF900C94A403D82FC0E007E0F6
:1007800010E0EE24E394F12CCC0F60E08091BE03E6
:100790000E94B702B701002E01C0660F0A94EAF763
:1007A0006D238091BC030E94B70261E08091BE037B
:1007B0000E94B7028091BD030E948E02892B09F02E
:1007C000C1600150110900F78C2FDF91CF911F916B
:1007D0000F91FF90EF9008958CBD9DBD0895CF922D
:1007E000DF92EF92FF920F931F93CF93DF937C01E1
:1007F000162F6A01F89480919C03C22FD0E060E02C
:10080000882381F1809198030E94B7028BEC97E0D6
:100810000197F1F7812F0E940A018601CC0DDD1DA1
:10082000C017D10761F0F80181918F010E940A0180
:10083000E114F104A9F7F80131978083F1CF61E069
:10084000809198030E94B7028BEC97E00197F1F733
:100850007894DF91CF911F910F91FF90EF90DF90EF
:10086000CF900895809198030E94B70280E590E0B0
:100870000E94EC03812F0E94A4038601CC0DDD1D94
:100880000C171D0761F0F80181918F010E94A403EC
:10089000E114F104A9F7F80131978083F1CF61E009
:1008A000809198030E94B702D3CFCF93DF931F921A
:1008B000CDB7DEB76983682F606221E0AE014F5F7C
:1008C0005F4F81E090E00E94EF030F90DF91CF91A6
:1008D0000895CF93DF931F92CDB7DEB721E0AE012D
:1008E0004F5F5F4F682F90E080E00E94EF038981A7
:1008F0000F90DF91CF9108950F931F93CF93DF93C4
:1009000010929B03DBE503E210E0D15009F447C0ED
:1009100087E10E94690484FD44C080919D0388237F
:1009200069F061E0809197030E94B702C8010197C6
:10093000F1F760E0809197030E94B70280919E03D7
:1009400090919F038230910538F0880F991F880F8E
:10095000991F05970197F1F787E00E946904C82F56
:10096000C07285FF05C060E287E00E945504CDCFCC
:1009700084FFCBCF20E050E040E061EE81E090E0EA
:100980000E94EF0360E187E00E94550481E08093BC
:100990009B038C2FDF91CF911F910F910895C0E0A1
:1009A000F5CFC1E0F3CF85ED8093BC008091BC0012
:1009B00084FDFCCF1092D902089520918202260F67
:1009C0003327331F21323105ECF42091D902FC0189
:1009D00090E080E0243069F082E00895A0918202E6
:1009E0002191AC014E595D4FA40FB52FB11D2C9331
:1009F0000196861798F380918202680F60938202B5
:100A000080E0089581E008950895E091DB028091EF
:100A1000DA02E81730F4F0E0EE5BFD4F808190E001
:100A200008958FEF9FEF08959091DB028091DA0295
:100A30002FEF3FEF981748F4E92FF0E0EE5BFD4F02
:100A4000208130E09F5F9093DB02C901089580917F
:100A5000DA029091DB02891B990B0895CF92DF9205
:100A6000EF92FF920F931F93CF93DF937C01CB0103
:100A70008A012091E302222389F0EB016B01C40E6D
:100A8000D51ECC15DD0569F06991D701ED91FC917A
:100A90000190F081E02DC7010995F3CF642F0E94EA
:100AA000DD04C801DF91CF911F910F91FF90EF906E
:100AB000DF90CF900895CF93DF931F92CDB7DEB72D
:100AC00069832091E3022223F9F02091E002203291
:100AD00058F021E030E0FC013383228390E080E095
:100AE0000F90DF91CF9108958091E102E82FF0E01F
:100AF000EE5DFD4F998190838F5F8093E10280933B
:100B0000E00281E090E0ECCF61E0CE0101960E942E
:100B1000DD04F7CF2091E00281E0213208F044C0EB
:100B20008091D9028111FCCF8091E20292E09093F2
:100B3000D90291E09093D8029FEF9093A502109272
:100B4000C7022093C602A2E2B2E0E6EAF2E090E039
:100B5000291331C01092C8029091C802880F892BC6
:100B60008093C8028091D702813049F51092D70254
:100B70008091C8028093BB008091BC0083FDF8CFB8
:100B800085EC8093BC008091D9028230E1F38091A2
:100B9000A5028F3FB1F08091A5028032A1F0809133
:100BA000A502803391F084E01092E1021092E002FD
:100BB0001092E30208953D9131939F5FC9CF85EE76
:100BC000E0CF80E0F1CF82E0EFCF83E0EDCFCF93B5
:100BD000DF93D82FC62F8091BB038F3F59F58091AB
:100BE000A8039091A9032091B20331E03093E3026E
:100BF0002093E2021092E1021092E002DC01ED91FA
:100C0000FC910190F081E02D6D2F09958091A80352
:100C10009091A903DC01ED91FC910190F081E02D10
:100C20006C2F09958091A8039091A903DF91CF9132
:100C30000C948A058091BE038F3F21F482E591E0F8
:100C40000E94EC0360E08091BB030E94B7028D2FED
:100C50008F770E94AB038C2F0E94AB0361E08091E1
:100C6000BB03DF91CF910C94B70290E080E0089530
:100C70008091D9028111FCCF81E08093D9028093C9
:100C8000D8029FEF9093A5021092C702940F909301
:100C9000C6028093C8028091C802660F682B6093D9
:100CA000C8028091D702813019F51092D702809145
:100CB000C8028093BB008091BC0083FDF8CF85EC17
:100CC0008093BC008091D9028130E1F38091C7020A
:100CD000841710F44091C702A6EAB2E0E2E4F2E021
:100CE00080E0841307C01092DB028093DA0208953B
:100CF00085EEE6CF9D9191938F5FF3CFCF93DF93F6
:100D0000C82F8091BB038F3F09F046C08091A80394
:100D10009091A9032091B20331E03093E302209334
:100D2000E2021092E1021092E002DC01ED91FC91EE
:100D30000190F081E02D6C2F09958091A80390918E
:100D4000A9030E948A0542E06091B2038091A80342
:100D50009091A9030E9438068091A8039091A9035D
:100D6000DC01ED91FC910284F385E02D0995C82FFB
:100D70008091A8039091A903DC01ED91FC9102847C
:100D8000F385E02D099520E03C2FE901C82BD92BF4
:100D9000CE01DF91CF9108958091BE038F3F21F462
:100DA00082E591E00E94EC0360E08091BB030E9429
:100DB000B7028C2F0E94AB0380E00E94AB03C82FC8
:100DC00080E00E94AB03DC2FC82F61E08091BB0361
:100DD0000E94B702DDCF0E947E06982789279827B8
:100DE00008958F929F92AF92BF92CF92DF92EF922F
:100DF000FF928091BB038F3F09F0F5C08091A8035B
:100E00009091A9032091B20331E03093E302209343
:100E1000E2021092E1021092E002DC01ED91FC91FD
:100E20000190F081E02D6AEF09958091A8039091DF
:100E3000A9030E948A0543E06091B2038091A80350
:100E40009091A9030E9438068091A8039091A9036C
:100E5000DC01ED91FC910284F385E02D09954C01B4
:100E6000990FAA08BB08BA2CA92C982C8824809129
:100E7000A8039091A903DC01ED91FC910284F38514
:100E8000E02D0995092E000CAA0BBB0B882A992A84
:100E9000AA2ABB2ABA2CA92C982C88248091A803B2
:100EA0009091A903DC01ED91FC910284F385E02D82
:100EB0000995092E000CAA0BBB0B6C017D01C828FB
:100EC000D928EA28FB2860E070E080EC9FE7C11495
:100ED000D104B0E8EB06F10409F47CC08091C303AF
:100EE0009091C403B0E0A0E08D2C9E2CAF2CBB24CD
:100EF000A7FCBA94881A990AAA0ABB0A37E0F594A3
:100F0000E794D794C7943A95D1F7880F991FAA1FF1
:100F1000BB1FA7019601281B390B4A0B5B0BA09145
:100F2000C503B091C6030E94A8156B017C015BE06C
:100F3000F594E794D794C7945A95D1F7A5019401F5
:100F4000C501B4010E9476159B01AC016CE055957A
:100F50004795379527956A95D1F7A091C703B0912A
:100F6000C8030E94A8159B01AC017EE055954795EA
:100F7000379527957A95D1F72C0D3D1D4E1D5F1D98
:100F80008091BF039091C003A091C103B091C203AF
:100F9000280F391F4A1F5B1F2093B7033093B803F4
:100FA0004093B9035093BA03A5E0B0E00E94B31494
:100FB00060587F4F8F4F9F4F672F782F892F99272A
:100FC00087FD9A950E94BA1320E030E048EC52E485
:100FD0000E940415FF90EF90DF90CF90BF90AF90EC
:100FE0009F908F9008958091BE038F3F21F482E5FA
:100FF00091E00E94EC0360E08091BB030E94B70285
:101000008AEF0E94AB0380E00E94AB0390E0B0E067
:10101000A0E0CC24D82EE92EFA2E80E00E94AB036B
:10102000C82AFE2CED2CDC2CCC2480E00E94AB03E3
:10103000C82A61E08091BB030E94B70244CFCF93DE
:10104000C82F8091BB038F3FA9F58091A803909191
:10105000A9032091B20331E03093E3022093E2022E
:101060001092E1021092E002DC01ED91FC910190FE
:10107000F081E02D6C2F09958091A8039091A90330
:101080000E948A0541E06091B2038091A80390918B
:10109000A9030E9438068091A8039091A903DC015E
:1010A000ED91FC910284F385E02D0995C82F8C2FDA
:1010B000CF9108958091BE038F3F21F482E591E0A6
:1010C0000E94EC0360E08091BB030E94B7028C2F6A
:1010D0000E94AB0380E00E94AB03C82F61E08091C7
:1010E000BB030E94B702E3CFFC0101900020E9F7A7
:1010F0003197AF01481B590BBC0184EE92E00C9470
:1011000058018F929F92AF92BF920F931F93CF93EC
:10111000DF93CDB7DEB7A1970FB6F894DEBF0FBE51
:10112000CDBF19A2423008F44AE08E010F5D1F4F77
:10113000842E912CB12CA12CA50194010E9486151E
:10114000E62FB901CA01EA30F4F4E05DD801EE936C
:101150008D01232B242B252B79F790E080E010972D
:1011600019F0CD010E947408A1960FB6F894DEBF65
:101170000FBECDBFDF91CF911F910F91BF90AF9068
:101180009F908F900895E95CE1CFCF93DF934AE081
:101190000E948108EC018AE291E00E9474088C0FA1
:1011A0009D1FDF91CF910895CF93DF930E94740824
:1011B000EC018AE291E00E9474088C0F9D1FDF9180
:1011C000CF9108950F931F93CF93DF93EC01888104
:1011D0009981009759F02A813B812617370730F013
:1011E00081E0DF91CF911F910F9108958B016F5F87
:1011F0007F4F0E94DB16009759F0998388831B83E9
:101200000A832C813D81232B59F7FC011082E8CF02
:1012100080E0E7CFEF92FF920F931F93CF93DF937E
:101220006115710541F480E0DF91CF911F910F911D
:10123000FF90EF90089541155105B1F07B01EC014D
:101240000C811D81040F151FB8010E94E20888233C
:1012500051F3288139818C819D81B701820F931FC1
:101260000E94A1171D830C8381E0DECFEF92FF92D5
:101270000F931F93CF93DF93CDB7DEB764970FB66D
:10128000F894DEBF0FBECDBF7C01CB01BA018E0149
:101290000F5F1F4F22E044E00E942E11FC010190DD
:1012A0000020E9F73197AF01481B590BBC01C7017A
:1012B0000E940A0964960FB6F894DEBF0FBECDBF38
:1012C000DF91CF911F910F91FF90EF900895FB0157
:1012D00001900020E9F73197AF01461B570B0C94A2
:1012E0000A094F925F926F927F928F929F92AF9274
:1012F000BF92CF92DF92EF92FF92CF93DF93CDB761
:10130000DEB766970FB6F894DEBF0FBECDBF61E0C3
:101310008DE00E94B7028DE291E00E9474081A826B
:10132000198281E08B830E94F1066C837D838E831A
:101330009F830E94F1068DEF0E947E06B0E0A0E040
:10134000811520E89207A105B10509F4AFC180908D
:10135000B7039090B803A090B903B090BA032CE201
:10136000921A21E0A20AB1086C017D013EE0CC0C8A
:10137000DD1CEE1CFF1C3A95D1F78091DF039091A4
:10138000E003092E000CAA0BBB0B44E1880F991F48
:10139000AA1FBB1F4A95D1F7C81AD90AEA0AFB0A45
:1013A000A091E103B091E203A50194010E94A81568
:1013B000C61AD70AE80AF90A80E4D80EE11CF11C23
:1013C0006FE0F594E794D794C7946A95D1F7A0910C
:1013D000DE03B0E00E94B3142B013C017BE0759466
:1013E0006794579447947A95D1F720E8520E611C80
:1013F000711CA091E3030A2E000CBB0B94010E9408
:10140000A815EAE09595879577956795EA95D1F7C0
:10141000A30192010E9476159B01AC01FAE055955B
:10142000479537952795FA95D1F7405E5F4FA09184
:10143000DC03B091DD030E94A815705E8F4F9F4FB3
:10144000AEE09595879577956795AA95D1F7A70111
:1014500096010E9476156B017C01BFE095958795FA
:1014600077956795BA95D1F79B01AC010E947615E7
:101470009B01AC0187E055954795379527958A954F
:10148000D1F7A091DB03B0E00E94B31424E095955E
:101490008795779567952A95D1F7C61AD70AE80AEE
:1014A000F90AF7FE03C0C12CD12C7601C701B601A1
:1014B00061307105810529E1920724F060E070E058
:1014C00080E099E12CE095958795779567952A9529
:1014D000D1F70E94BA1320E030E040E85AE30E94BE
:1014E000F513688779878A879B871D861C861F86E8
:1014F0001E86198A188A6CE070E0CE010C960E9454
:10150000E2082C853D858111D6C02115310519F0E1
:10151000C9010E9452161D861C86198A188A1F86C8
:101520001E867E0182E1E80EF11C8B814AE0B70144
:1015300090E00E944C11F70101900020E9F73197EB
:10154000AF014E195F09B701CE010C960E940A093E
:101550006CE471E0CE010C960E9467096FE471E0C3
:10156000CE010C960E9467094C815D816E817F815E
:10157000CE010C960E9436096CE471E0CE010C9607
:101580000E94670964E571E0CE010C960E9467092C
:10159000488559856A857B85CE010C960E9436095F
:1015A000488959896C857D8584EE92E00E945801B6
:1015B0008AE291E00E9474088091A2039091A303B3
:1015C000892BD9F01092A3031092A20381E08A8B99
:1015D00082E08B8B83E08C8B84E08D8B1E8A25E0F0
:1015E000A70160E381E090E00E94EF0325E0A701FE
:1015F0006AE281E090E00E94EF0380E00E946904CB
:101600008A3079F060E0809197030E94B7026AE027
:1016100080E00E94550465E070E080E090E00E9468
:101620003B0387E10E946904F82E81FF08C020E097
:1016300050E040E062EE81E090E00E94EF03F5FCB4
:101640000E947C0460E387E00E9455042BE0AE0119
:101650004F5F5F4F60EA81E090E00E94EF030E94DD
:101660007C04882321F089E591E00E94D40860E0A1
:101670008DE00E94B7028C859D85009711F00E9435
:10168000521666960FB6F894DEBF0FBECDBFDF913F
:10169000CF91FF90EF90DF90CF90BF90AF909F9051
:1016A0008F907F906F905F904F90089560E070E012
:1016B00080EC9FE716CF8CE090E0998B888B6FE3EE
:1016C00071E0C9010E94A1172CCF1F920F920FB693
:1016D0000F9211242F933F934F935F936F937F93B8
:1016E0008F939F93AF93BF93EF93FF9384EE92E01A
:1016F0000E94D601FF91EF91BF91AF919F918F9181
:101700007F916F915F914F913F912F910F900FBEFD
:101710000F901F9018951F920F920FB60F921124E1
:101720002F938F939F93EF93FF93E091F402F091A7
:10173000F5028081E091FA02F091FB0282FD1BC06C
:1017400090818091FD028F5F8F732091FE0282173E
:1017500041F0E091FD02F0E0EC51FD4F958F809358
:10176000FD02FF91EF919F918F912F910F900FBEEE
:101770000F901F9018958081F4CF1F920F920FB693
:101780000F9211242F933F938F939F93AF93BF9307
:101790008091CB029091CC02A091CD02B091CE026B
:1017A0003091CA0223E0230F2D3758F50196A11D71
:1017B000B11D2093CA028093CB029093CC02A093D8
:1017C000CD02B093CE028091CF029091D002A09131
:1017D000D102B091D2020196A11DB11D8093CF021A
:1017E0009093D002A093D102B093D202BF91AF9157
:1017F0009F918F913F912F910F900FBE0F901F904F
:10180000189526E8230F0296A11DB11DD2CF1F9275
:101810000F920FB60F9211242F933F934F935F9324
:101820006F937F938F939F93AF93BF93EF93FF93A8
:101830008091B900887F803609F44AC0F0F588327B
:1018400009F4A7C018F5803109F49BC0B8F48823C7
:1018500009F4F9C0883009F494C0FF91EF91BF9169
:10186000AF919F918F917F916F915F914F913F9138
:101870002F910F900FBE0F901F901895883109F48B
:1018800088C0803251F78093A50214C0803409F4D7
:101890009DC040F48033B9F38833F9F68093A502F4
:1018A00085ECB0C0803509F485C0883509F496C050
:1018B000883499F60E94D304D0CF883909F48CC0BB
:1018C00038F5883729F050F4883611F0803729F63A
:1018D00083E08093D9021092A40257C0883809F49B
:1018E0007BC0803919F0803809F0B7CF8091A4020D
:1018F000803208F071C0E091A40281E08E0F8093E5
:10190000A4028091BB00F0E0EC57FD4F80833DC006
:10191000803B39F0E0F4803A09F479C0883A09F064
:101920009CCF84E08093D9021092830210928202AD
:10193000E091D502F091D602099580918202811141
:101940000FC081E0809382021092620209C0803C45
:1019500009F4A6CF883C09F4A3CF883B09F07DCFDA
:10196000E091830281E08E0F80938302F0E0EE59D4
:10197000FD4F80818093BB00909183028091820211
:1019800029C08091C8028093BB0085EC8093BC0085
:1019900064CF9091C7028091C602981758F5E091E4
:1019A000C70281E08E0F8093C702F0E0EA55FD4F39
:1019B0008081E9CFE091C70281E08E0F8093C7025A
:1019C0008091BB00F0E0EA55FD4F80839091C70203
:1019D0008091C6029817C8F285E8D8CFE091C70277
:1019E00081E08E0F8093C7028091BB00F0E0EA5542
:1019F000FD4F80838091D80281115CCF81E080937C
:101A0000D70284EA8093BC001092D90226CF85ECDD
:101A10008093BC001092D9028091A402803230F4ED
:101A2000E091A402F0E0EC57FD4F10826091A40217
:101A300070E0E091D302F091D40284E892E009953D
:101A40001092A4020ACF1092A50234CF1F920F92D7
:101A50000FB60F9211242F933F934F935F936F9381
:101A60007F938F939F93AF93BF93EF93FF93809157
:101A7000DC029091DD02A091DE02B091DF020896B7
:101A8000A11DB11D8093DC029093DD02A093DE02C4
:101A9000B093DF028FEF91E00E94D40889E092E0DA
:101AA0000E9474086091DC027091DD028091DE0278
:101AB0009091DF020E94C50865E070E080E090E050
:101AC0000E943B03FF91EF91BF91AF919F918F9146
:101AD0007F916F915F914F913F912F910F900FBE2A
:101AE0000F901F901895E4EEF2E01382128288EEB8
:101AF00093E0A0E0B0E084839583A683B7832AE0D7
:101B000031E03183208325EC30E03587248724ECD5
:101B100030E03787268720EC30E0318B208B21ECBA
:101B200030E0338B228B22EC30E0358B248B26EC9B
:101B300030E0378B268B118E128E138E148EE1E8D7
:101B4000F3E01382128284839583A683B7838CE1AA
:101B500091E09183808388E190E0A0E0B0E0809301
:101B6000E7039093E803A093E903B093EA03E8EA5C
:101B7000F3E01582148217821682118610868FEF89
:101B8000838B848B858B868B178A108E118E128E99
:101B90008FEF9FEF9093A3038093A2030895CF93B9
:101BA000DF9300D000D01F92CDB7DEB7789484B514
:101BB000826084BD84B5816084BD85B5826085BD49
:101BC00085B5816085BD80916E00816080936E00D7
:101BD00010928100809181008260809381008091C9
:101BE000810081608093810080918000816080937A
:101BF00080008091B10084608093B1008091B0003A
:101C000081608093B00080917A00846080937A0034
:101C100080917A00826080937A0080917A0081605E
:101C200080937A0080917A00806880937A00109285
:101C3000C1000FB6F894A8958091600088618093E8
:101C40006000109260000FBE61E08DE00E94E5022E
:101C5000E091F402F091F50282E08083E091F002DD
:101C6000F091F1021082E091F202F091F30280E132
:101C700080831092FC02E091F802F091F90286E074
:101C80008083E091F602F091F70280818061808389
:101C9000E091F602F091F702808188608083E09104
:101CA000F602F091F702808180688083E091F6026D
:101CB000F091F70280818F7D80838CE291E00E9419
:101CC000D40884E691E00E9474086EE170E080E040
:101CD00090E00E94C5088CE291E00E94D4088FE356
:101CE00091E00E9474084AE061E070E080E090E0DA
:101CF0000E9481088AE291E00E9474088CE291E0DF
:101D00000E94D40887E891E00E9474086091E7037C
:101D10007091E8038091E9039091EA030E94C5085D
:101D20008CE291E00E94D40887E08093970388E0DA
:101D30008093980310929C0361E087E00E94E50283
:101D400061E0809198030E94E50261E08091980330
:101D50000E94B7028AE00E948E02182F0E946D0333
:101D6000809198038A3021F0612F8AE00E94B702A7
:101D70008FEF9FEF9093A3038093A20381E0809362
:101D80009B032091970390919803291301C080E051
:101D900080939D0364E670E080E090E00E943B0346
:101DA00064E685E00E9455046EE086E00E945504DA
:101DB0006FE184E00E94550488E592E090939F03D0
:101DC00080939E0380EB94E09093A1038093A00303
:101DD00011E0198382E08A8383E08B8384E08C8323
:101DE0001D8325E0AE014F5F5F4F6BE281E090E025
:101DF0000E94EF0363E08CE10E94550467E08DE1EF
:101E00000E94550420E050E040E062EE81E090E066
:101E10000E94EF0320E050E040E061EE81E090E0BE
:101E20000E94EF0360E787E00E9455040E947C0453
:101E300060E0809197030E94B7026BE080E00E940F
:101E4000550461E0809197030E94B70265E070E05D
:101E500080E090E00E943B0380E00E9469048B30A8
:101E600029F081EA91E00E94D408FFCF86E78093B1
:101E7000B20381E893E09093A9038093A803809133
:101E8000BB038F3F09F04AC01092DB021092DA02C6
:101E90001092E1021092E0021092D9021093D8023F
:101EA0001092D70261E082E10E94B70261E083E113
:101EB0000E94B7028091B9008E7F8093B900809113
:101EC000B9008D7F8093B90088E48093B80085E4E1
:101ED0008093BC0086E591E09093D6028093D50272
:101EE00087E591E09093D4028093D30280ED0E9425
:101EF0001F0890E0B0E0A0E08093B3039093B40398
:101F0000A093B503B093B60380369105A105B10542
:101F100011F18CEB91E00E94D408FFCF61E00E94A8
:101F2000B70261E08091BB030E94E5028091BE038D
:101F30008F3F19F40E946D03D9CF61E00E94E50242
:101F400061E08091BC030E94E50260E08091BD03E6
:101F50000E94E502CBCF66EB80EE0E94E7056AE0C7
:101F600070E080E090E00E943B0383EF0E941F0836
:101F700080FDF5CF88E80E94EB069093C403809320
:101F8000C3038AE80E94EB069093C6038093C503BF
:101F90008CE80E94EB069093C8038093C7038EE8F9
:101FA0000E94EB069093CA038093C90380E90E94C4
:101FB000EB069093CC038093CB0382E90E94EB065F
:101FC0009093CE038093CD0384E90E94EB06909317
:101FD000D0038093CF0386E90E94EB069093D2034F
:101FE0008093D10388E90E94EB069093D4038093F9
:101FF000D3038AE90E94EB069093D6038093D5031E
:102000008CE90E94EB069093D8038093D7038EE966
:102010000E94EB069093DA038093D90381EA0E9431
:102020001F088093DB0381EE0E94EB069093DD0393
:102030008093DC0383EE0E941F088093DE0384EE0E
:102040000E941F08182F85EE0E941F0890E11902B8
:10205000900111248F70282B3093E0032093DF032D
:1020600086EE0E941F08182F85EE0E941F0890E13F
:1020700019029001112490E044E0959587954A95C6
:10208000E1F7822B932B9093E2038093E10387EE99
:102090000E941F088093E3038DEE8093E5038091F7
:1020A000E6038F71806A8093E6038091E403807C6D
:1020B0008093E40360E084EF0E94E7056091E6030B
:1020C00062956695677082EF0E94E7058091E40350
:1020D000682F677090E2699FB0011124282F269520
:1020E00026952695277094E0299F90011124622B54
:1020F00087FB882780F9682B85EF0E94E705809190
:10210000E503682F677090E2699FB0011124282FC2
:10211000269526952695277094E0299F90011124F5
:10212000622B8295869586958370682B84EF0E943A
:10213000E70564E670E080E090E00E943B0364EF16
:1021400071E080E090E00E943B0384B7877F84BF0A
:102150008091600088618093600081E280936000DC
:10216000809160008064809360000E9471091092E9
:10217000DC021092DD021092DE021092DF0200E01B
:1021800010E04091DC025091DD026091DE0270911E
:10219000DF028091E7039091E803A091E903B091F9
:1021A000EA03481759076A077B0770F061E08DE082
:1021B0000E94B7020E9471091092DC021092DD02A7
:1021C0001092DE021092DF0280EF91E00E94D408AC
:1021D0006AE070E080E090E00E943B0383B7817F7B
:1021E000846083BF83B7816083BF7894889583B709
:1021F0008E7F83BF0115110509F4C3CF0E94C20170
:10220000882309F4BECF0E940000BBCF8091AC03AD
:102210009091AD03009739F0DC01ED91FC910280C3
:10222000F381E02D09958091AE039091AF03009763
:1022300039F0DC01ED91FC910280F381E02D0995EC
:102240008091B0039091B103009739F0DC01ED91DA
:10225000FC910280F381E02D09940895EF920F9391
:102260001F93CF93DF93E80134E047FD34E1042E60
:10227000000C550B57FF03C0519541955109E32EB2
:10228000022F242FAE010E947111CE01DF91CF9158
:102290001F910F91EF900895BB274A3031F4992395
:1022A00022F4BDE2909581959F4F0C945811BB2765
:1022B000FB015527AA27880F991FAA1FA41710F002
:1022C000A41B83955051B9F7A05DAA3308F0A95D0E
:1022D000A193009779F7B111B1931192CB010C94AE
:1022E000A813A9E0B0E0E7E7F1E10C94C4146A0197
:1022F000F22EB02E102FFBE3AF2EA01608F41BE336
:102300001F5F012F27E0AE014F5F5F4F0E94D01289
:10231000BC018981982F9970913009F43FC09BE2EC
:10232000E1FC04C09E2D9170E0FC3AC05E2D50711E
:10233000E82FE87083FF46C084E0911101C083E07C
:10234000EF2DE81B8F1508F0E0E0D6018E2F20E27C
:10235000552351F1992329F0D6019C93C60101968A
:102360006C0196012D5F3F4FE2FE24C08EE4D60142
:102370008C9391E411969C93119712968C93D901AA
:102380008E2F90E281111BC0E20FF32FF11D1082FE
:102390008EEF9FEF2996ECE00C94E0149DE2C6CFFF
:1023A00090E2C4CF2D9381508111FCCFCE0ED11C71
:1023B000E0E0D0CF8EE6D6018C9391E6DBCF9D9303
:1023C0008150E0CF482F447082FF3DC084E09111DE
:1023D00001C083E08F1510F4EF2DE81BD6018E2F7E
:1023E00020E2552309F1992329F0D6019C93C601D7
:1023F00001966C0196012D5F3F4FE2FE1BC089E400
:10240000D6018C938EE411968C93119786E41296E4
:102410008C93D9018E2F90E2882309F4B5CF9D9338
:102420008150FACF2D9381508111FCCFCE0ED11C5B
:10243000E0E0D9CF89E6D6018C938EE611968C9395
:10244000119786E6E4CF9B0177FF02C030E020E0E1
:10245000A1E0B0E0911102C0B0E0A0E0F901319636
:10246000AE0FBF1F8B2C912CBB2009F461C054010F
:10247000EFEFAE1ABE0AAA0DBB1DFA161B0619F025
:1024800014F04F2D4A1B511188C0E3FC59C076014E
:10249000A42FB0E2A1114FC0C40ED11C992309F49E
:1024A0005BC040E0D6011196F60190836D01552383
:1024B00009F448C0012F060F9A81582F507184FFEC
:1024C00003C0913309F4015010160CF047C00930D5
:1024D00008F008E0EEE2FE2E5B01A01AB1088501CB
:1024E0009194819491082F3F320729F4D601FC92F0
:1024F000F60131966F016217730794F10217130703
:102500007CF5DB01A21BB30BAA24A394B12CAC0E67
:10251000BD1EAA0DBB1D11968C9121503109D6010B
:10252000119628153905F4F0F60180836D01DBCF93
:10253000B12CA12CA0CFF701B1937F01A150AACF5C
:102540009111B0CFD601942F50E302C05D9391500A
:102550009111FCCFC40ED11C40E0ACCF01E0BACF4A
:1025600080E3DBCF6217730731F4963388F4953339
:1025700011F4552369F0F6018083FD01842F90E268
:10258000811108C0A40FB11D1C9290E080E002CF21
:1025900081E3F1CF91938150F3CF911183CF8ACF13
:1025A000283008F027E03327DA01990F311D87FD25
:1025B000916000966105710539F432602E5F3D939C
:1025C00030E32A95E1F708959F3F30F08038710598
:1025D000610509F03C5F3C5F3D93913008F08068F5
:1025E000911DDF93CF931F930F93FF92EF92192FBB
:1025F000987F9695E92F96959695E90FFF27EE53CC
:10260000FF4F99273327EE24FF24A701E701059008
:102610000894079428F4360FE71EF81E491F511D31
:10262000660F771F881F991F0694A1F705900794DE
:1026300028F4E70EF81E491F561FC11D770F881F8B
:10264000991F661F0694A1F70590079428F4F80EC9
:10265000491F561FC71FD11D880F991F661F771F5F
:102660000694A1F70590079420F4490F561FC71F41
:10267000D81F990F661F771F881F0694A9F78491AA
:102680001095177041F0D695C79557954795F794D3
:10269000E7941A95C1F7E8E6F0E068941590159173
:1026A00035916591959105907FE27395E118F10A56
:1026B000430B560BC90BD009C0F7E10CF11E431FA9
:1026C000561FC91FD01D7EF4703311F48A95E6CFD2
:1026D000E894015030F0080F0AF40027021708F4BC
:1026E000202F2395022F7A3328F079E37D932A95C2
:1026F000E9F710C07D932A9589F60694979567951A
:10270000379517951794E118F10A430B560BC90B2F
:10271000D00998F023957E9173957A3308F070E391
:102720007C932013B8F77E9170617D9330F0839590
:1027300071E37D9370E32A95E1F71124EF90FF9008
:102740000F911F91CF91DF91992787FD9095089563
:10275000DC01FC01672F71917723E1F7329704C008
:102760007C916D9370836291AE17BF07C8F3089593
:10277000E89409C097FB3EF490958095709561951B
:102780007F4F8F4F9F4F9923A9F0F92F96E9BB27D1
:102790009395F695879577956795B795F111F8CF4D
:1027A000FAF4BB0F11F460FF1BC06F5F7F4F8F4FB8
:1027B0009F4F16C0882311F096E911C0772321F0AE
:1027C0009EE8872F762F05C0662371F096E8862F46
:1027D00070E060E02AF09A95660F771F881FDAF79D
:1027E000880F9695879597F908950E9408140C9480
:1027F00079140E946B1438F00E94721420F0952313
:1028000011F00C9462140C94681411240C94AD14FF
:102810000E948A1470F3959FC1F3950F50E0551FE5
:10282000629FF001729FBB27F00DB11D639FAA2725
:10283000F00DB11DAA1F649F6627B00DA11D661F74
:10284000829F2227B00DA11D621F739FB00DA11D95
:10285000621F839FA00D611D221F749F3327A00D4F
:10286000611D231F849F600D211D822F762F6A2FEB
:1028700011249F5750409AF0F1F088234AF0EE0F50
:10288000FF1FBB1F661F771F881F91505040A9F77D
:102890009E3F510580F00C9462140C94AD145F3F80
:1028A000E4F3983ED4F3869577956795B795F795B9
:1028B000E7959F5FC1F7FE2B880F911D9695879531
:1028C00097F9089597F99F6780E870E060E00895B0
:1028D0009FEF80EC089500240A9416161706180638
:1028E0000906089500240A94121613061406050614
:1028F0000895092E0394000C11F4882352F0BB0FA5
:1029000040F4BF2B11F460FF04C06F5F7F4F8F4F07
:102910009F4F089557FD9058440F551F59F05F3F42
:1029200071F04795880F97FB991F61F09F3F79F0F1
:1029300087950895121613061406551FF2CF469573
:10294000F1DF08C0161617061806991FF1CF8695F5
:102950007105610508940895E894BB2766277727D9
:10296000CB0197F908950E94F514A59F900DB49F8F
:10297000900DA49F800D911D112408952F923F92D8
:102980004F925F926F927F928F929F92AF92BF927F
:10299000CF92DF92EF92FF920F931F93CF93DF932B
:1029A000CDB7DEB7CA1BDB0B0FB6F894DEBF0FBE88
:1029B000CDBF09942A88398848885F846E847D84D5
:1029C0008C849B84AA84B984C884DF80EE80FD80D7
:1029D0000C811B81AA81B981CE0FD11D0FB6F8944D
:1029E000DEBF0FBECDBFED010895A29FB001B39F22
:1029F000C001A39F700D811D1124911DB29F700D08
:102A0000811D1124911D08950E9418150C947914AC
:102A10000E94721458F00E946B1440F029F45F3F3A
:102A200029F00C94621451110C94AD140C94681498
:102A30000E948A1468F39923B1F3552391F3951BEF
:102A4000550BBB27AA2762177307840738F09F5FCF
:102A50005F4F220F331F441FAA1FA9F335D00E2E3C
:102A60003AF0E0E832D091505040E695001CCAF7A9
:102A70002BD0FE2F29D0660F771F881FBB1F26176C
:102A800037074807AB07B0E809F0BB0B802DBF0143
:102A9000FF2793585F4F3AF09E3F510578F00C9412
:102AA00062140C94AD145F3FE4F3983ED4F3869522
:102AB00077956795B795F7959F5FC9F7880F911D33
:102AC0009695879597F90895E1E0660F771F881F1F
:102AD000BB1F621773078407BA0720F0621B730BD2
:102AE000840BBA0BEE1F88F7E0950895DB018F93F6
:102AF0009F930E94B314BF91AF91A29F800D911D2F
:102B0000A39F900DB29F900D11240895A1E21A2E5B
:102B1000AA1BBB1BFD010DC0AA1FBB1FEE1FFF1F81
:102B2000A217B307E407F50720F0A21BB30BE40BD1
:102B3000F50B661F771F881F991F1A9469F7609518
:102B40007095809590959B01AC01BD01CF010895D2
:102B5000B7FF0C94B3140E94B314821B930B089517
:102B6000EE0FFF1F0590F491E02D09940F931F9332
:102B7000CF93DF938230910510F482E090E0E091F2
:102B8000ED03F091EE0330E020E0B0E0A0E03097FC
:102B900099F42115310509F44AC0281B390B24305A
:102BA0003105D8F58A819B816115710589F1FB0199
:102BB00093838283FE0111C0408151810281138180
:102BC00048175907E0F04817590799F4109761F032
:102BD00012960C93129713961C933296CF01DF91A5
:102BE000CF911F910F9108950093ED031093EE0381
:102BF000F4CF2115310551F04217530738F0A901E0
:102C0000DB019A01BD01DF01F801C1CFEF01F9CF6E
:102C10009093EE038093ED03CDCFFE01E20FF31FFF
:102C2000819391932250310939832883D7CF209102
:102C3000EB033091EC03232B41F4209102013091FE
:102C400003013093EC032093EB03209100013091BA
:102C500001012115310541F42DB73EB74091040122
:102C600050910501241B350BE091EB03F091EC032F
:102C7000E217F307A0F42E1B3F0B2817390778F053
:102C8000AC014E5F5F4F2417350748F04E0F5F1FB2
:102C90005093EC034093EB03819391939FCFF0E02B
:102CA000E0E09CCFCF93DF930097E9F0FC013297EF
:102CB00013821282A091ED03B091EE03ED0130E09A
:102CC00020E01097A1F420813181820F931F209181
:102CD000EB033091EC032817390709F061C0F0933A
:102CE000EC03E093EB03DF91CF910895EA01CE1757
:102CF000DF07E8F54A815B819E0141155105B1F777
:102D0000E901FB83EA8349915991C40FD51FEC1760
:102D1000FD0761F4808191810296840F951FE9017E
:102D200099838883828193819B838A83F0E0E0E0AA
:102D300012968D919C9113970097B9F52D913C9126
:102D40001197CD010296820F931F2091EB033091D2
:102D5000EC032817390739F6309751F51092EE0336
:102D60001092ED03B093EC03A093EB03BCCFD3839D
:102D7000C28340815181840F951FC817D90761F420
:102D80004E5F5F4F88819981480F591F518340835F
:102D90008A819B81938382832115310509F0B0CF0D
:102DA000F093EE03E093ED039ECFFD01DC01C0CF75
:102DB00013821282D7CFB0E0A0E0E1EEF6E10C94EE
:102DC000C0148C01009751F4CB010E94B6158C0100
:102DD000C801CDB7DEB7E0E10C94DC14FC01E60FCE
:102DE000F71F9C0122503109E217F30708F49DC038
:102DF000D901CD91DC911197C617D70798F0C5304E
:102E0000D10530F3CE0104978617970708F3C61B48
:102E1000D70B2297C193D1936D937C93CF010E94DE
:102E20005216D6CF5B01AC1ABD0A4C018C0E9D1E0A
:102E3000A091ED03B091EE03512C412CF12CE12C2B
:102E4000109731F58091EB039091EC03881599056B
:102E500009F05CC04616570608F058C08091000182
:102E600090910101009741F48DB79EB74091040104
:102E700050910501841B950BE817F90708F055C020
:102E8000F093EC03E093EB03F90171836083A0CF2F
:102E90008D919C91119712966C90129713967C903D
:102EA0001397A815B90559F56C0142E0C40ED11C61
:102EB000CA14DB0420F1AC014A195B09DA0112964D
:102EC000159780F06282738251834083D9016D939C
:102ED0007C93E114F10471F0D7011396FC93EE9307
:102EE000129776CF22968C0F9D1FF90191838083D4
:102EF000F301EFCFF093EE03E093ED0369CF4816B3
:102F0000590608F42C017D01D3019ACFCB010E9410
:102F1000B6157C01009749F0AE01B8010E949817E0
:102F2000C8010E945216870153CF10E000E050CF35
:102F3000FB01DC0102C001900D9241505040D8F7D6
:102F40000895FB01DC0101900D920020E1F7089546
:102F500010E0CFEDD0E004C0FE010E94B015219634
:0A2F6000C03ED107C9F7F894FFCF77
:102F6A000000EF03800000000000F801580185010D
:102F7A004502B6019401A801000000005B052E0578
:102F8A00350604052705140505050D0A0053656E67
:102F9A0064696E6720424D45323830203A2000532A
:102FAA00656E736F72204944203A20002C20005429
:102FBA00203D200048203D20002E2E2E53756363AD
:102FCA00657373005265717569726564204C6F6729
:102FDA0067696E6720496E74657276616C20287322
:102FEA00656329203A200055706461746520467231
:102FFA00657175656E6379202873656329203A20A7
:10300A000043616E6E6F7420636F6D6D756E6963D8
:10301A00617465207769746820524600436F756C45
:10302A0064206E6F742066696E6420612076616C1C
:10303A00696420424D453238302073656E736F7271
:10304A002C20636865636B20776972696E6721005B
:10305A00476F696E6720746F20736C6565700061D5
:10306A0077616B65206E6F77005365632073696EB5
:10307A006365206C61737420757064617465203AAD
:02308A00200024
:00000001FF
